{"abi":[{"type":"constructor","inputs":[{"name":"_totalJurors","type":"uint256","internalType":"uint256"}],"stateMutability":"nonpayable"},{"type":"function","name":"closeVoting","inputs":[],"outputs":[],"stateMutability":"nonpayable"},{"type":"function","name":"getVerdict","inputs":[],"outputs":[{"name":"verdict","type":"string","internalType":"string"}],"stateMutability":"view"},{"type":"function","name":"getVoteState","inputs":[],"outputs":[{"name":"_guiltyVotes","type":"uint256","internalType":"uint256"},{"name":"_notGuiltyVotes","type":"uint256","internalType":"uint256"},{"name":"_totalVoted","type":"uint256","internalType":"uint256"},{"name":"_closed","type":"bool","internalType":"bool"}],"stateMutability":"view"},{"type":"function","name":"guiltyVotes","inputs":[],"outputs":[{"name":"","type":"uint256","internalType":"uint256"}],"stateMutability":"view"},{"type":"function","name":"hasVoted","inputs":[{"name":"","type":"address","internalType":"address"}],"outputs":[{"name":"","type":"bool","internalType":"bool"}],"stateMutability":"view"},{"type":"function","name":"notGuiltyVotes","inputs":[],"outputs":[{"name":"","type":"uint256","internalType":"uint256"}],"stateMutability":"view"},{"type":"function","name":"totalJurors","inputs":[],"outputs":[{"name":"","type":"uint256","internalType":"uint256"}],"stateMutability":"view"},{"type":"function","name":"vote","inputs":[{"name":"guilty","type":"bool","internalType":"bool"}],"outputs":[],"stateMutability":"nonpayable"},{"type":"function","name":"votedGuilty","inputs":[{"name":"","type":"address","internalType":"address"}],"outputs":[{"name":"","type":"bool","internalType":"bool"}],"stateMutability":"view"},{"type":"function","name":"votingClosed","inputs":[],"outputs":[{"name":"","type":"bool","internalType":"bool"}],"stateMutability":"view"},{"type":"event","name":"Voted","inputs":[{"name":"juror","type":"address","indexed":true,"internalType":"address"},{"name":"guilty","type":"bool","indexed":false,"internalType":"bool"}],"anonymous":false},{"type":"event","name":"VotingClosed","inputs":[{"name":"verdict","type":"string","indexed":false,"internalType":"string"},{"name":"guiltyVotes","type":"uint256","indexed":false,"internalType":"uint256"},{"name":"notGuiltyVotes","type":"uint256","indexed":false,"internalType":"uint256"}],"anonymous":false}],"bytecode":{"object":"0x60806040523480156200001157600080fd5b5060405162000d4e38038062000d4e8339818101604052810190620000379190620000cb565b600081116200007d576040517f08c379a000000000000000000000000000000000000000000000000000000000815260040162000074906200015e565b60405180910390fd5b806000819055505062000180565b600080fd5b6000819050919050565b620000a58162000090565b8114620000b157600080fd5b50565b600081519050620000c5816200009a565b92915050565b600060208284031215620000e457620000e36200008b565b5b6000620000f484828501620000b4565b91505092915050565b600082825260208201905092915050565b7f4d7573742068617665206174206c656173742031206a75726f72000000000000600082015250565b600062000146601a83620000fd565b915062000153826200010e565b602082019050919050565b60006020820190508181036000830152620001798162000137565b9050919050565b610bbe80620001906000396000f3fe608060405234801561001057600080fd5b506004361061009e5760003560e01c80635b03754d116100665780635b03754d14610149578063ab9c7fa414610167578063ad8e201114610188578063c631b292146101a6578063f5bc1c22146101b05761009e565b806309eef43e146100a35780632479ecb8146100d35780633e61bdd4146100f15780634b9f5c981461010f578063546ce9e11461012b575b600080fd5b6100bd60048036038101906100b891906107bc565b6101e0565b6040516100ca9190610804565b60405180910390f35b6100db610200565b6040516100e89190610804565b60405180910390f35b6100f9610213565b6040516101069190610838565b60405180910390f35b6101296004803603810190610124919061087f565b610219565b005b61013361052a565b6040516101409190610838565b60405180910390f35b610151610530565b60405161015e919061093c565b60405180910390f35b61016f610606565b60405161017f949392919061095e565b60405180910390f35b610190610640565b60405161019d9190610838565b60405180910390f35b6101ae610646565b005b6101ca60048036038101906101c591906107bc565b610739565b6040516101d79190610804565b60405180910390f35b60046020528060005260406000206000915054906101000a900460ff1681565b600360009054906101000a900460ff1681565b60005481565b600460003373ffffffffffffffffffffffffffffffffffffffff1673ffffffffffffffffffffffffffffffffffffffff16815260200190815260200160002060009054906101000a900460ff16156102a6576040517f08c379a000000000000000000000000000000000000000000000000000000000815260040161029d906109ef565b60405180910390fd5b600360009054906101000a900460ff16156102f6576040517f08c379a00000000000000000000000000000000000000000000000000000000081526004016102ed90610a5b565b60405180910390fd5b6001600460003373ffffffffffffffffffffffffffffffffffffffff1673ffffffffffffffffffffffffffffffffffffffff16815260200190815260200160002060006101000a81548160ff02191690831515021790555080600560003373ffffffffffffffffffffffffffffffffffffffff1673ffffffffffffffffffffffffffffffffffffffff16815260200190815260200160002060006101000a81548160ff02191690831515021790555080156103c95760018060008282546103bd9190610aaa565b925050819055506103e4565b6001600260008282546103dc9190610aaa565b925050819055505b3373ffffffffffffffffffffffffffffffffffffffff167f8eb81cb806dbb3d8a2f94981614331a55dfd90e06a42fdc362ca3ca96981d92f8260405161042a9190610804565b60405180910390a26000546002546001546104459190610aaa565b10610527576001600360006101000a81548160ff0219169083151502179055506000600254600154116104ad576040518060400160405280600a81526020017f4e4f545f4755494c5459000000000000000000000000000000000000000000008152506104e4565b6040518060400160405280600681526020017f4755494c545900000000000000000000000000000000000000000000000000008152505b90507fd351d12e7e667c144e78865c5d6733f065e93d5c142b46d0bec1e1651af5ede58160015460025460405161051d93929190610ade565b60405180910390a1505b50565b60015481565b6060600360009054906101000a900460ff16610581576040517f08c379a000000000000000000000000000000000000000000000000000000000815260040161057890610b68565b60405180910390fd5b60025460015411156105ca576040518060400160405280600681526020017f4755494c545900000000000000000000000000000000000000000000000000008152509050610603565b6040518060400160405280600a81526020017f4e4f545f4755494c54590000000000000000000000000000000000000000000081525090505b90565b600080600080600154935060025492506002546001546106269190610aaa565b9150600360009054906101000a900460ff16905090919293565b60025481565b600360009054906101000a900460ff16610737576001600360006101000a81548160ff0219169083151502179055506000600254600154116106bd576040518060400160405280600a81526020017f4e4f545f4755494c5459000000000000000000000000000000000000000000008152506106f4565b6040518060400160405280600681526020017f4755494c545900000000000000000000000000000000000000000000000000008152505b90507fd351d12e7e667c144e78865c5d6733f065e93d5c142b46d0bec1e1651af5ede58160015460025460405161072d93929190610ade565b60405180910390a1505b565b60056020528060005260406000206000915054906101000a900460ff1681565b600080fd5b600073ffffffffffffffffffffffffffffffffffffffff82169050919050565b60006107898261075e565b9050919050565b6107998161077e565b81146107a457600080fd5b50565b6000813590506107b681610790565b92915050565b6000602082840312156107d2576107d1610759565b5b60006107e0848285016107a7565b91505092915050565b60008115159050919050565b6107fe816107e9565b82525050565b600060208201905061081960008301846107f5565b92915050565b6000819050919050565b6108328161081f565b82525050565b600060208201905061084d6000830184610829565b92915050565b61085c816107e9565b811461086757600080fd5b50565b60008135905061087981610853565b92915050565b60006020828403121561089557610894610759565b5b60006108a38482850161086a565b91505092915050565b600081519050919050565b600082825260208201905092915050565b60005b838110156108e65780820151818401526020810190506108cb565b60008484015250505050565b6000601f19601f8301169050919050565b600061090e826108ac565b61091881856108b7565b93506109288185602086016108c8565b610931816108f2565b840191505092915050565b600060208201905081810360008301526109568184610903565b905092915050565b60006080820190506109736000830187610829565b6109806020830186610829565b61098d6040830185610829565b61099a60608301846107f5565b95945050505050565b7f416c726561647920766f74656400000000000000000000000000000000000000600082015250565b60006109d9600d836108b7565b91506109e4826109a3565b602082019050919050565b60006020820190508181036000830152610a08816109cc565b9050919050565b7f566f74696e6720636c6f73656400000000000000000000000000000000000000600082015250565b6000610a45600d836108b7565b9150610a5082610a0f565b602082019050919050565b60006020820190508181036000830152610a7481610a38565b9050919050565b7f4e487b7100000000000000000000000000000000000000000000000000000000600052601160045260246000fd5b6000610ab58261081f565b9150610ac08361081f565b9250828201905080821115610ad857610ad7610a7b565b5b92915050565b60006060820190508181036000830152610af88186610903565b9050610b076020830185610829565b610b146040830184610829565b949350505050565b7f566f74696e67206e6f7420636c6f736564000000000000000000000000000000600082015250565b6000610b526011836108b7565b9150610b5d82610b1c565b602082019050919050565b60006020820190508181036000830152610b8181610b45565b905091905056fea2646970667358221220019c34c09a43a728cc3d8a1d4f37660c21d68b39ae3a59743fd1c79048ce329b64736f6c63430008130033","linkReferences":{}},"methodIdentifiers":{"closeVoting()":"c631b292","getVerdict()":"5b03754d","getVoteState()":"ab9c7fa4","guiltyVotes()":"546ce9e1","hasVoted(address)":"09eef43e","notGuiltyVotes()":"ad8e2011","totalJurors()":"3e61bdd4","vote(bool)":"4b9f5c98","votedGuilty(address)":"f5bc1c22","votingClosed()":"2479ecb8"},"id":19}